:100000000C9446000C9465000C9465000C946500FB
:100010000C9465000C9465000C9465000C946500CC
:100020000C9465000C9465000C9465000C946500BC
:100030000C9465000C94C0010C9465000C94650050
:100040000C9465000C9465000C9465000C9465009C
:100050000C9465000C9465000C9465000C9465008C
:100060000C9465000C9465000C9465000C9465007C
:100070000C9465000C9465000C9465000C9465006C
:100080000C9465000C9465000C94650011241FBE4F
:10009000CFEFD0E4DEBFCDBF11E0A0E0B1E0EEEDE8
:1000A000F9E000E00BBF02C007900D92AC31B10740
:1000B000D9F721E0ACE1B1E001C01D92A834B2074C
:1000C000E1F70E94C2030C94ED040C940000CF935E
:1000D000DF9300D01F92CDB7DEB789837B836A831D
:1000E00089818A3031F48A819B81BC018DE00E9434
:1000F000670080EC90E0FC018081882F90E08072A6
:100100009927892BB1F386EC90E02981FC012083AB
:1001100080E090E00F900F900F90DF91CF910895C5
:10012000CF93DF9300D000D0CDB7DEB769837A8359
:100130008B839C8389819A81AB81BC8180930E01E2
:1001400090930F01A0931001B093110180910E01C3
:1001500090910F01A0911001B091110180931D01A8
:1001600090931E01A0931F01B093200100000F90F7
:100170000F900F900F90DF91CF910895CF93DF9361
:10018000CDB7DEB781E890E02BE0FC01208388E862
:1001900090E02DE730E0FC01318320838FE690E092
:1001A00022E0FC01208384E890E0FC0111821082AF
:1001B00080910E0190910F01A0911001B091110159
:1001C00080931D0190931E01A0931F01B093200105
:1001D0008FE590E02FE530E0F90120812068FC01F7
:1001E00020830000DF91CF910895CF93DF93CDB7A7
:1001F000DEB781E890E0FC0110820000DF91CF9132
:1002000008950F931F93CF93DF931F92CDB7DEB75F
:100210001982A6C08981282F30E0C901880F991F53
:10022000820F931F880F991F880F991F865D9E4F1D
:10023000FC0120813181428153818981682F70E0E6
:10024000CB01880F991F860F971F880F991F880F62
:10025000991F8A5D9E4FFC0180819181A281B381AB
:10026000281739074A075B0708F449C08981082F16
:1002700010E08981282F30E0C901880F991F820F73
:10028000931F880F991F880F991F825D9E4FFC0155
:10029000408151818981282F30E0C901880F991F41
:1002A000820F931F880F991F880F991F8C5D9E4F97
:1002B000FC0180819181FA0109959C01C801880F98
:1002C000991F800F911F880F991F880F991F8C5DB0
:1002D0009E4FFC01318320838981282F30E0C901A2
:1002E000880F991F820F931F880F991F880F991FDE
:1002F000865D9E4FFC0110821182128213828981D9
:10030000682F70E08981282F30E0C901880F991F7C
:10031000820F931F880F991F880F991F865D9E4F2C
:10032000FC0180819181A281B38122E330E040E031
:1003300050E0280F391F4A1F5B1FCB01880F991F00
:10034000860F971F880F991F880F991F865D9E4FF4
:10035000FC01208331834283538389818F5F8983AA
:100360008981282F30E083E090E02817390708F4CE
:1003700051CF00000F90DF91CF911F910F91089501
:100380001F920F9200905F000F92112400905B006B
:100390000F922F933F934F935F936F937F938F931E
:1003A0009F93AF93BF93EF93FF93CF93DF93CDB71B
:1003B000DEB780911D0190911E01A0911F01B091A7
:1003C00020010197A109B10980931D0190931E019D
:1003D000A0931F01B093200180911D0190911E01F7
:1003E000A0911F01B0912001892B8A2B8B2B91F4B6
:1003F0000E94010180910E0190910F01A0911001C6
:10040000B091110180931D0190931E01A0931F01D3
:10041000B09320010000DF91CF91FF91EF91BF9148
:10042000AF919F918F917F916F915F914F913F918C
:100430002F910F9000925B000F9000925F000F9041
:100440001F901895CF93DF93CDB7DEB78AE790E082
:100450002AE730E0F9012081206EFC0120830000B2
:10046000DF91CF910895CF93DF9300D0CDB7DEB762
:100470009A83898389819A81892B19F01A8219823A
:1004800001C0000089819A81892B09F00AC088E7A0
:1004900090E0FC018081918190932301809322015F
:1004A000000089819A810F900F90DF91CF9108957C
:1004B000CF93DF9300D0CDB7DEB79A83898389814C
:1004C0009A81892B19F01A82198201C00000898152
:1004D0009A81892B09F073C08091220190912301A8
:1004E0008935924038F080912201909123018D3B13
:1004F000924070F08091220190912301843F9140BD
:1005000058F480912201909123018039914020F08C
:1005100084E18093120152C08091220190912301C5
:100520008D3B924038F080912201909123018132DD
:10053000934070F080912201909123018039914085
:1005400058F480912201909123018C32914020F047
:100550008AE08093120132C08091220190912301A0
:100560008132934038F080912201909123018538A7
:10057000934070F080912201909123018C32914040
:1005800058F48091220190912301883C910520F03C
:1005900085E08093120112C0809122019091230185
:1005A0008538934038F48091220190912301883C52
:1005B000910520F482E08093120100C0000089813F
:1005C0009A810F900F90DF91CF910895CF93DF9391
:1005D00000D0CDB7DEB79A83898389819A81813033
:1005E0009105D9F0823091051CF4892B49F067C040
:1005F0008230910509F440C0039709F44EC05FC0F2
:1006000081E090E09A83898380E8809313018EEFE4
:10061000809314011092210152C080912201909187
:100620002301843F914060F0809122019091230149
:100630008935924028F481E090E09A8389833EC016
:100640008091220190912301843F914038F41092CF
:10065000210182E090E09A83898330C08091220159
:10066000909123018935924048F11092210183E055
:1006700090E09A83898322C0809122019091230186
:10068000843F914028F482E090E09A83898317C0E8
:1006900081E090E09A83898312C080912201909139
:1006A00023018935924028F083E090E09A83898382
:1006B00006C081E090E09A83898301C000008981AF
:1006C0009A818130910509F447C08230910524F464
:1006D000892B09F443C043C08230910501F103978F
:1006E00009F03DC08091210190911201692F0E9473
:1006F000E104892F882369F480911301813021F46A
:1007000080E88093130105C0809113018695809342
:100710001301809121018F5F8093210120C080917E
:10072000210190911201692F0E94E104892F8823F1
:1007300069F480911301803821F481E080931301E2
:1007400005C080911301880F8093130180912101CE
:100750008F5F8093210103C0000001C0000088E288
:1007600090E020911301FC0120838BE290E0209126
:100770001401FC01208389819A810F900F90DF91F1
:10078000CF910895CF93DF931F92CDB7DEB781E26B
:1007900090E0FC01108282E290E02FEFFC012083C8
:1007A00087E290E02FEFFC01208385E290E0FC01DE
:1007B00010828AE290E02FEFFC01208388E290E033
:1007C000FC0110820E94220219828981282F30E0C8
:1007D000C901880F991F820F931F880F991F880FD7
:1007E000991F8C5D9E4FFC01118210828981282FF8
:1007F00030E0C901880F991F820F931F880F991F3E
:10080000880F991F9C012A5D3E4F82E390E0A0E093
:10081000B0E0F90180839183A283B3838981282F7B
:1008200030E0C901880F991F820F931F880F991F0D
:10083000880F991F865D9E4FFC01108211821282E3
:1008400013828981282F30E0C901880F991F820FF8
:10085000931F880F991F880F991F825D9E4F23E376
:1008600032E0FC013183208389818F5F8983898114
:10087000282F30E0C901880F991F820F931F880F1E
:10088000991F880F991F8C5D9E4FFC011182108269
:100890008981282F30E0C901880F991F820F931F8B
:1008A000880F991F880F991F9C012A5D3E4F82E394
:1008B00090E0A0E0B0E0F90180839183A283B3834C
:1008C0008981282F30E0C901880F991F820F931F5B
:1008D000880F991F880F991F865D9E4FFC0110821B
:1008E0001182128213828981282F30E0C901880F7A
:1008F000991F820F931F880F991F880F991F825D80
:100900009E4F28E532E0FC013183208389818F5F8F
:1009100089838981282F30E0C901880F991F820FB0
:10092000931F880F991F880F991F8C5D9E4FFC01A4
:10093000118210828981282F30E0C901880F991F08
:10094000820F931F880F991F880F991F9C012A5DA2
:100950003E4F82E390E0A0E0B0E0F9018083918314
:10096000A283B3838981282F30E0C901880F991FA2
:10097000820F931F880F991F880F991F865D9E4FC6
:10098000FC0110821182128213828981282F30E0AB
:10099000C901880F991F820F931F880F991F880F15
:1009A000991F825D9E4F26EE32E0FC013183208349
:1009B00062E370E080E090E00E9490000E94BE0040
:1009C000FFCF991B79E004C0991F961708F0961B7A
:0E09D000881F7A95C9F780950895F894FFCF97
:1009DE00000000020000000067000000000001009F
:0C09EE0000001480FE0300320000000036
:00000001FF
