:100000000C9446000C9465000C9465000C946500FB
:100010000C9465000C9465000C9465000C946500CC
:100020000C9465000C9465000C9465000C946500BC
:100030000C9465000C94E5010C9465000C9465002B
:100040000C9465000C9465000C9465000C9465009C
:100050000C9465000C9465000C9465000C9465008C
:100060000C9465000C9465000C9465000C9465007C
:100070000C9465000C9465000C9465000C9465006C
:100080000C9465000C9465000C94650011241FBE4F
:10009000CFEFD0E4DEBFCDBF11E0A0E0B1E0E6EFEE
:1000A000F0E100E00BBF02C007900D92AC31B10748
:1000B000D9F721E0ACE1B1E001C01D92AF33B20746
:1000C000E1F70E94A0070C9479080C940000CF93EC
:1000D000DF9300D01F92CDB7DEB789837B836A831D
:1000E00089818A3031F48A819B81BC018DE00E9434
:1000F000670080EC90E0FC018081882F90E08072A6
:100100009927892BB1F386EC90E02981FC012083AB
:1001100080E090E00F900F900F90DF91CF910895C5
:10012000CF93DF931F92CDB7DEB789838CE790E042
:100130002981283028F02CE730E0F901208101C026
:100140002981FC0120831092210106C000008091CA
:1001500021018F5F80932101809121018F30B0F3C5
:1001600000000F90DF91CF910895CF93DF9300D0DF
:1001700000D0CDB7DEB769837A838B839C83898176
:100180009A81AB81BC8180930E0190930F01A09363
:100190001001B093110180910E0190910F01A09177
:1001A0001001B091110180931D0190931E01A09345
:1001B0001F01B093200100000F900F900F900F903F
:1001C000DF91CF910895CF93DF93CDB7DEB781E86C
:1001D00090E02BE0FC01208388E890E02DE730E000
:1001E000FC01318320838FE690E022E0FC01208334
:1001F00084E890E0FC011182108280910E019091C0
:100200000F01A0911001B091110180931D019093F5
:100210001E01A0931F01B09320018FE590E02FE510
:1002200030E0F90120812068FC0120830000DF918B
:10023000CF910895CF93DF93CDB7DEB781E890E0FB
:10024000FC0110820000DF91CF9108950F931F935E
:10025000CF93DF931F92CDB7DEB71982A6C08981F5
:10026000282F30E0C901880F991F820F931F880F34
:10027000991F880F991F875D9E4FFC012081318156
:10028000428153818981682F70E0CB01880F991FCB
:10029000860F971F880F991F880F991F8B5D9E4FA0
:1002A000FC0180819181A281B381281739074A0717
:1002B0005B0708F449C08981082F10E08981282F45
:1002C00030E0C901880F991F820F931F880F991F73
:1002D000880F991F835D9E4FFC0140815181898168
:1002E000282F30E0C901880F991F820F931F880FB4
:1002F000991F880F991F8D5D9E4FFC018081918110
:10030000FA0109959C01C801880F991F800F911F60
:10031000880F991F880F991F8D5D9E4FFC013183B7
:1003200020838981282F30E0C901880F991F820F0F
:10033000931F880F991F880F991F875D9E4FFC019F
:1003400010821182128213828981682F70E0898164
:10035000282F30E0C901880F991F820F931F880F43
:10036000991F880F991F875D9E4FFC0180819181A5
:10037000A281B38121E030E040E050E0280F391F36
:100380004A1F5B1FCB01880F991F860F971F880F8D
:10039000991F880F991F875D9E4FFC012083318331
:1003A0004283538389818F5F89838981282F30E03D
:1003B00082E090E02817390708F451CF00000F9031
:1003C000DF91CF911F910F9108951F920F9200908E
:1003D0005F000F92112400905B000F922F933F93C8
:1003E0004F935F936F937F938F939F93AF93BF933D
:1003F000EF93FF93CF93DF93CDB7DEB780911D01CD
:1004000090911E01A0911F01B09120010197A109B7
:10041000B10980931D0190931E01A0931F01B09319
:10042000200180911D0190911E01A0911F01B091AA
:100430002001892B8A2B8B2B91F40E94260180911D
:100440000E0190910F01A0911001B09111018093C4
:100450001D0190931E01A0931F01B0932001000085
:10046000DF91CF91FF91EF91BF91AF919F918F91CC
:100470007F916F915F914F913F912F910F900092DB
:100480005B000F9000925F000F901F901895CF9324
:10049000DF93CDB7DEB78AE790E02AE730E0F901D5
:1004A0002081206EFC0120830000DF91CF91089510
:1004B000CF93DF9300D0CDB7DEB79A83898389814C
:1004C0009A81892B09F003C01A8219820000898160
:1004D0009A81892B09F019C080E00E94900088E77A
:1004E00090E0FC018081918190933E0180933D01D9
:1004F00081E00E94900088E790E0FC01808191817A
:1005000090933C0180933B01000089819A810F9078
:100510000F90DF91CF910895CF93DF9300D0CDB7A7
:10052000DEB79A83898389819A81892B19F01A828F
:10053000198201C0000089819A81892B09F0E4C0E9
:1005400080913D0190913E018935924038F0809133
:100550003D0190913E018D3B924070F080913D01B4
:1005600090913E01843F914058F480913D019091DB
:100570003E018039914020F084E18093120151C006
:1005800080913D0190913E018D3B924038F08091E9
:100590003D0190913E018132934070F080913D0188
:1005A00090913E018039914058F480913D019091A5
:1005B0003E018C32914020F08AE08093120131C0DC
:1005C00080913D0190913E018132934038F08091BD
:1005D0003D0190913E018538934070F080913D013E
:1005E00090913E018C32914058F480913D01909160
:1005F0003E01883C910520F085E08093120111C0F6
:1006000080913D0190913E018538934038F480916E
:100610003D0190913E01883C910518F482E0809361
:10062000120180913B0190913C018935924038F054
:1006300080913B0190913C018D3B924070F0809104
:100640003B0190913C01843F914058F480913B01E3
:1006500090913C018039914020F084E18093130116
:1006600052C080913B0190913C018D3B924038F00B
:1006700080913B0190913C018132934070F08091D8
:100680003B0190913C018039914058F480913B01AD
:1006900090913C018C32914020F08AE080931301CC
:1006A00032C080913B0190913C018132934038F0FF
:1006B00080913B0190913C018538934070F080918E
:1006C0003B0190913C018C32914058F480913B0168
:1006D00090913C01883C910520F085E080931301C6
:1006E00012C080913B0190913C018538934038F4D1
:1006F00080913B0190913C01883C910520F482E07F
:100700008093130100C0000089819A810F900F909F
:10071000DF91CF910895CF93DF9300D0CDB7DEB7AF
:100720009A83898389819A818130910599F08230F9
:100730009105C1F1892B09F05BC081E090E09A83BB
:10074000898380E8809314018EEF809315011092C5
:1007500022014EC080913D0190913E01843F914025
:10076000D0F080913D0190913E018935924098F4FE
:1007700080913B0190913C01843F914060F08091D9
:100780003B0190913C018935924028F481E090E052
:100790009A8389832DC01092220182E090E09A838F
:1007A000898326C080913D0190913E018935924018
:1007B000D0F480913D0190913E01843F914098F0AA
:1007C00080913B0190913C01843F914060F0809189
:1007D0003B0190913C018935924028F481E090E002
:1007E0009A83898304C082E090E09A838983000021
:1007F00089819A818130910509F48CC382309105F9
:1008000021F0892B09F488C388C38091220190913B
:100810001201692F0E946D08892F882309F0D8C121
:1008200080913D0190913E0189359240E0F08091A8
:100830003B0190913C01843F9140A8F080913B01A5
:1008400090913C018935924070F48091140181307F
:1008500021F481E08093140157C38091140186959F
:100860008093140151C380913D0190913E01843FDA
:100870009140E0F480913B0190913C01843F914094
:10088000A8F080913B0190913C018935924070F431
:1008900080911401803821F480E88093140134C3DE
:1008A00080911401880F809314012EC380913B0125
:1008B00090913C0189359240E8F080913D01909102
:1008C0003E01843F9140B0F080913D0190913E0106
:1008D0008935924078F4809115018E3F21F48EEF96
:1008E0008093150111C380911501869580688093CE
:1008F00015010AC380913B0190913C01843F9140D6
:1009000000F580913D0190913E01843F9140C8F0F7
:1009100080913D0190913E018935924090F4809103
:1009200015018F3E21F48FEE80931501EDC2809169
:100930001501882F90E0880F991F81608093150121
:10094000E3C280913D0190913E018935924008F4C7
:1009500047C080913B0190913C018935924008F459
:100960003FC080911401813071F4809115018E3F58
:1009700051F081E080931401809115018695806883
:10098000809315012CC080911401813069F0809111
:1009900015018E3F49F48EEF80931501809114016B
:1009A0008695809314011BC080911401813059F405
:1009B000809115018E3F39F481E0809314018EEF10
:1009C000809315010CC080911401869580931401C9
:1009D00080911501869580688093150195C294C217
:1009E00080913D0190913E018935924008F44DC0BF
:1009F00080913B0190913C01843F914008F045C0BB
:100A000080911401813089F4809115018F3E69F045
:100A100081E08093140180911501882F90E0880F68
:100A2000991F8160809315012FC08091140181303E
:100A300069F0809115018F3E49F48FEE8093150186
:100A4000809114018695809314011EC08091140139
:100A5000813059F4809115018F3E39F481E0809303
:100A600014018FEE809315010FC0809114018695BB
:100A70008093140180911501882F90E0880F991FB1
:100A800081608093150140C23FC280913D019091E9
:100A90003E01843F914008F047C080913B01909116
:100AA0003C018935924008F43FC0809114018038A0
:100AB00071F4809115018E3F51F080E8809314010C
:100AC0008091150186958068809315012CC08091D6
:100AD0001401803869F0809115018E3F49F48EEF42
:100AE0008093150180911401880F809314011BC01D
:100AF00080911401803859F4809115018E3F39F4AA
:100B000080E8809314018EEF809315010CC08091D2
:100B10001401880F809314018091150186958068D7
:100B200080931501F1C1F0C180913D0190913E018A
:100B3000843F914008F0E8C180913B0190913C01D5
:100B4000843F914008F0E0C180911401803889F41D
:100B5000809115018F3E69F080E8809314018091A7
:100B60001501882F90E0880F991F816080931501EF
:100B7000CBC180911401803869F0809115018F3EBE
:100B800049F48FEE8093150180911401880F8093B2
:100B90001401BAC180911401803859F48091150173
:100BA0008F3E39F480E8809314018FEE8093150115
:100BB000ABC180911401880F8093140180911501BD
:100BC000882F90E0880F991F8160809315019CC148
:100BD0008091220190911301692F0E946D08892F45
:100BE000882309F091C180913B0190913C018935A6
:100BF0009240E8F080913D0190913E01843F914008
:100C0000B0F080913D0190913E018935924078F499
:100C1000809115018E3F21F48EEF8093150174C1F0
:100C20008091150186958068809315016DC1809132
:100C30003B0190913C01843F914000F580913D0142
:100C400090913E01843F9140C8F080913D01909188
:100C50003E018935924090F4809115018F3E21F438
:100C60008FEE8093150150C180911501882F90E07F
:100C7000880F991F81608093150146C180913D01C5
:100C800090913E018935924008F447C080913B0124
:100C900090913C018935924008F43FC08091140145
:100CA000813071F4809115018E3F51F081E0809385
:100CB00014018091150186958068809315012CC0E0
:100CC00080911401813069F0809115018E3F49F4C3
:100CD0008EEF809315018091140186958093140105
:100CE0001BC080911401813059F4809115018E3F11
:100CF00039F481E0809314018EEF809315010CC0CC
:100D00008091140186958093140180911501869538
:100D1000806880931501F8C0F7C080913D019091E3
:100D20003E018935924008F44DC080913B0190917D
:100D30003C01843F914008F045C08091140181300E
:100D400089F4809115018F3E69F081E08093140150
:100D500080911501882F90E0880F991F8160809302
:100D600015012FC080911401813069F08091150127
:100D70008F3E49F48FEE8093150180911401869582
:100D8000809314011EC080911401813059F4809128
:100D900015018F3E39F481E0809314018FEE80932A
:100DA00015010FC0809114018695809314018091E4
:100DB0001501882F90E0880F991F8160809315019D
:100DC000A3C0A2C080913D0190913E01843F91401B
:100DD00008F047C080913B0190913C0189359240D9
:100DE00008F43FC080911401803871F4809115019E
:100DF0008E3F51F080E88093140180911501869513
:100E00008068809315012CC080911401803869F0AE
:100E1000809115018E3F49F48EEF809315018091EA
:100E20001401880F809314011BC080911401803835
:100E300059F4809115018E3F39F480E880931401B4
:100E40008EEF809315010CC080911401880F809360
:100E5000140180911501869580688093150154C016
:100E600053C080913D0190913E01843F914008F034
:100E70004BC080913B0190913C01843F914008F030
:100E800043C080911401803889F4809115018F3E10
:100E900069F080E88093140180911501882F90E01B
:100EA000880F991F8160809315012EC080911401D5
:100EB000803869F0809115018F3E49F48FEE809360
:100EC000150180911401880F809314011DC0809139
:100ED0001401803859F4809115018F3E39F480E86F
:100EE000809314018FEE809315010EC08091140140
:100EF000880F8093140180911501882F90E0880F4E
:100F0000991F816080931501809122018F5F8093EA
:100F1000220103C0000001C0000088E290E020919F
:100F20001401FC0120838BE290E020911501FC016B
:100F3000208389819A810F900F90DF91CF9108953E
:100F4000CF93DF931F92CDB7DEB781E290E0FC0133
:100F5000108282E290E02FEFFC01208387E290E094
:100F60002FEFFC01208385E290E0FC0110828AE2F1
:100F700090E02FEFFC01208388E290E0FC011082DA
:100F80000E94470219828981282F30E0C901880F09
:100F9000991F820F931F880F991F880F991F8D5DCE
:100FA0009E4FFC01118210828981282F30E0C901F7
:100FB000880F991F820F931F880F991F880F991F01
:100FC0009C012B5D3E4F81E090E0A0E0B0E0F90194
:100FD00080839183A283B3838981282F30E0C90164
:100FE000880F991F820F931F880F991F880F991FD1
:100FF000875D9E4FFC0110821182128213828981CB
:10100000282F30E0C901880F991F820F931F880F86
:10101000991F880F991F835D9E4F28E532E0FC01E0
:101020003183208389818F5F89838981282F30E0F4
:10103000C901880F991F820F931F880F991F880F6E
:10104000991F8D5D9E4FFC01118210828981282F8E
:1010500030E0C901880F991F820F931F880F991FD5
:10106000880F991F9C012B5D3E4F82E390E0A0E02A
:10107000B0E0F90180839183A283B3838981282F13
:1010800030E0C901880F991F820F931F880F991FA5
:10109000880F991F875D9E4FFC011082118212827A
:1010A00013828981282F30E0C901880F991F820F90
:1010B000931F880F991F880F991F835D9E4F2BE800
:1010C00033E0FC013183208361E070E080E090E058
:1010D0000E94B5000E94E300FFCF991B79E004C095
:1010E000991F961708F0961B881F7A95C9F7809567
:0610F0000895F894FFCF03
:1010F6000000000200000000670000000000010080
:0C1106000000020280FE02000100000058
:00000001FF
