:100000000C9446000C9465000C9465000C946500FB
:100010000C9465000C9465000C9465000C946500CC
:100020000C9465000C9465000C9465000C946500BC
:100030000C9465000C94E5010C9465000C9465002B
:100040000C9465000C9465000C9465000C9465009C
:100050000C9465000C9465000C9465000C9465008C
:100060000C9465000C9465000C9465000C9465007C
:100070000C9465000C9465000C9465000C9465006C
:100080000C9465000C9465000C94650011241FBE4F
:10009000CFEFD0E4DEBFCDBF11E0A0E0B1E0ECE1F6
:1000A000FBE000E00BBF02C007900D92AE31B1073C
:1000B000D9F721E0AEE1B1E001C01D92AE34B20744
:1000C000E1F70E9461040C948C050C940000CF931E
:1000D000DF9300D01F92CDB7DEB789837B836A831D
:1000E00089818A3031F48A819B81BC018DE00E9434
:1000F000670080EC90E0FC018081882F90E08072A6
:100100009927892BB1F386EC90E02981FC012083AB
:1001100080E090E00F900F900F90DF91CF910895C5
:10012000CF93DF931F92CDB7DEB789838CE790E042
:100130002981283028F02CE730E0F901208101C026
:100140002981FC0120831092230106C000008091C8
:1001500023018F5F80932301809123018F30B0F3BF
:1001600000000F90DF91CF910895CF93DF9300D0DF
:1001700000D0CDB7DEB769837A838B839C83898176
:100180009A81AB81BC8180930E0190930F01A09363
:100190001001B093110180910E0190910F01A09177
:1001A0001001B091110180931F0190932001A09341
:1001B0002101B093220100000F900F900F900F903B
:1001C000DF91CF910895CF93DF93CDB7DEB781E86C
:1001D00090E02BE0FC01208388E890E02DE730E000
:1001E000FC01318320838FE690E022E0FC01208334
:1001F00084E890E0FC011182108280910E019091C0
:100200000F01A0911001B091110180931F019093F3
:100210002001A0932101B09322018FE590E02FE50A
:1002200030E0F90120812068FC0120830000DF918B
:10023000CF910895CF93DF93CDB7DEB781E890E0FB
:10024000FC0110820000DF91CF9108950F931F935E
:10025000CF93DF931F92CDB7DEB71982A6C08981F5
:10026000282F30E0C901880F991F820F931F880F34
:10027000991F880F991F845D9E4FFC012081318159
:10028000428153818981682F70E0CB01880F991FCB
:10029000860F971F880F991F880F991F885D9E4FA3
:1002A000FC0180819181A281B381281739074A0717
:1002B0005B0708F449C08981082F10E08981282F45
:1002C00030E0C901880F991F820F931F880F991F73
:1002D000880F991F805D9E4FFC014081518189816B
:1002E000282F30E0C901880F991F820F931F880FB4
:1002F000991F880F991F8A5D9E4FFC018081918113
:10030000FA0109959C01C801880F991F800F911F60
:10031000880F991F880F991F8A5D9E4FFC013183BA
:1003200020838981282F30E0C901880F991F820F0F
:10033000931F880F991F880F991F845D9E4FFC01A2
:1003400010821182128213828981682F70E0898164
:10035000282F30E0C901880F991F820F931F880F43
:10036000991F880F991F845D9E4FFC0180819181A8
:10037000A281B38121E030E040E050E0280F391F36
:100380004A1F5B1FCB01880F991F860F971F880F8D
:10039000991F880F991F845D9E4FFC012083318334
:1003A0004283538389818F5F89838981282F30E03D
:1003B00083E090E02817390708F451CF00000F9030
:1003C000DF91CF911F910F9108951F920F9200908E
:1003D0005F000F92112400905B000F922F933F93C8
:1003E0004F935F936F937F938F939F93AF93BF933D
:1003F000EF93FF93CF93DF93CDB7DEB780911F01CB
:1004000090912001A0912101B09122010197A109B1
:10041000B10980931F0190932001A0932101B09313
:10042000220180911F0190912001A0912101B091A2
:100430002201892B8A2B8B2B91F40E94260180911B
:100440000E0190910F01A0911001B09111018093C4
:100450001F0190932001A0932101B093220100007D
:10046000DF91CF91FF91EF91BF91AF919F918F91CC
:100470007F916F915F914F913F912F910F900092DB
:100480005B000F9000925F000F901F901895CF9324
:10049000DF93CDB7DEB78AE790E02AE730E0F901D5
:1004A0002081206EFC0120830000DF91CF91089510
:1004B000CF93DF9300D0CDB7DEB79A83898389814C
:1004C0009A81892B09F003C01A8219820000898160
:1004D0009A81892B09F019C080E00E94900088E77A
:1004E00090E0FC018081918190934D0180934C01BB
:1004F00081E00E94900088E790E0FC01808191817A
:1005000090934B0180934A01000089819A810F905A
:100510000F90DF91CF910895CF93DF9300D0CDB7A7
:10052000DEB79A83898389819A81892B19F01A828F
:10053000198201C0000089819A81892B09F073C05A
:1005400080914C0190914D018935924038F0809115
:100550004C0190914D018D3B924070F080914C0187
:1005600090914D01843F914058F480914C019091BD
:100570004D018039914020F082E08093120152C0F9
:1005800080914C0190914D018D3B924038F08091CB
:100590004C0190914D018132934070F080914C015B
:1005A00090914D018039914058F480914C01909187
:1005B0004D018C32914020F082E08093120132C0D4
:1005C00080914C0190914D018132934038F080919F
:1005D0004C0190914D018538934070F080914C0111
:1005E00090914D018C32914058F480914C01909142
:1005F0004D01883C910520F082E08093120112C0E9
:1006000080914C0190914D018538934038F4809150
:100610004C0190914D01883C910520F482E080933B
:10062000120100C0000089819A810F900F90DF9124
:10063000CF910895CF93DF9300D0CDB7DEB79A83E3
:10064000898389819A818130910599F08230910561
:1006500051F1892B09F03FC081E090E09A838983B2
:1006600080E8809313018EEF80931401109224018F
:1006700032C080914A0190914B01843F914060F0DB
:1006800080914A0190914B018935924028F481E094
:1006900090E09A8389831FC01092240182E090E049
:1006A0009A83898318C080914A0190914B01843FBD
:1006B000914060F080914A0190914B0189359240C0
:1006C00028F481E090E09A83898304C082E090E07E
:1006D0009A838983000089819A8181309105D9F1BB
:1006E0000297D9F58091240190911201692F0E94FF
:1006F0008005892F882391F580914A0190914B01C3
:100700008935924078F0809114018E3F21F48EEF6C
:100710008093140123C08091140186958068809392
:1007200014011CC080914A0190914B01843F91407B
:10073000A8F4809114018F3E21F48FEE8093140170
:100740000DC080911401882F90E0880F991F81605F
:100750008093140103C0000001C000008BE290E010
:1007600020911401FC01208389819A810F900F90C0
:10077000DF91CF910895CF93DF9300D0CDB7DEB74F
:100780009A83898389819A818130910599F0823099
:10079000910551F1892B09F03FC081E090E09A83E7
:1007A000898380E8809315018EEF80931601109263
:1007B000250132C080914C0190914D01843F9140C0
:1007C00060F080914C0190914D018935924028F460
:1007D00081E090E09A8389831FC01092250182E016
:1007E00090E09A83898318C080914C0190914D01CB
:1007F0008935924060F480914C0190914D01843F85
:10080000914028F081E090E09A83898304C082E0DF
:1008100090E09A838983000089819A8181309105D3
:1008200009F43FC08230910519F0892BE1F13CC0F9
:100830008091250190911201692F0E948005892FD6
:10084000882349F580914C0190914D018935924062
:1008500070F080911501813021F481E080931501C1
:100860001AC08091150186958093150114C080915E
:100870004C0190914D01843F914068F480911501A5
:10088000803821F480E88093150105C0809115011E
:10089000880F80931501809125018F5F809325013A
:1008A00003C0000001C0000088E290E02091150123
:1008B000FC01208389819A810F900F90DF91CF9165
:1008C0000895CF93DF931F92CDB7DEB781E290E01A
:1008D000FC01108282E290E02FEFFC01208387E28E
:1008E00090E02FEFFC01208385E290E0FC01108274
:1008F0008AE290E02FEFFC01208388E290E0FC0187
:1009000010820E94470219828981282F30E0C90194
:10091000880F991F820F931F880F991F880F991FA7
:100920008A5D9E4FFC01118210828981282F30E060
:10093000C901880F991F820F931F880F991F880F75
:10094000991F9C01285D3E4F81E090E0A0E0B0E05F
:10095000F90180839183A283B3838981282F30E0BA
:10096000C901880F991F820F931F880F991F880F45
:10097000991F845D9E4FFC011082118212821382A6
:100980008981282F30E0C901880F991F820F931F9A
:10099000880F991F880F991F805D9E4F28E532E0D0
:1009A000FC013183208389818F5F89838981282F8E
:1009B00030E0C901880F991F820F931F880F991F7C
:1009C000880F991F8A5D9E4FFC01118210828981D8
:1009D000282F30E0C901880F991F820F931F880FBD
:1009E000991F880F991F9C01285D3E4F82E390E07C
:1009F000A0E0B0E0F90180839183A283B383898171
:100A0000282F30E0C901880F991F820F931F880F8C
:100A1000991F880F991F845D9E4FFC0110821182DF
:100A2000128213828981282F30E0C901880F991F13
:100A3000820F931F880F991F880F991F805D9E4F0B
:100A40002AE133E0FC013183208389818F5F898330
:100A50008981282F30E0C901880F991F820F931FC9
:100A6000880F991F880F991F8A5D9E4FFC01118284
:100A700010828981282F30E0C901880F991F820FC9
:100A8000931F880F991F880F991F9C01285D3E4F67
:100A900082E390E0A0E0B0E0F90180839183A2833B
:100AA000B3838981282F30E0C901880F991F820FF5
:100AB000931F880F991F880F991F845D9E4FFC011B
:100AC00010821182128213828981282F30E0C9019D
:100AD000880F991F820F931F880F991F880F991FE6
:100AE000805D9E4F2BEB33E0FC013183208361E07E
:100AF00070E080E090E00E94B5000E94E300FFCF2C
:100B0000991B79E004C0991F961708F0961B881F5F
:0C0B10007A95C9F780950895F894FFCFFE
:100B1C00000000020000000067000000000001005F
:0E0B2C0000000280FE80FE03000100000000B9
:00000001FF
