:100000000C9446000C9465000C9465000C946500FB
:100010000C9465000C9465000C9465000C946500CC
:100020000C9465000C9465000C9465000C946500BC
:100030000C9465000C94C0010C9465000C94650050
:100040000C9465000C9465000C9465000C9465009C
:100050000C9465000C9465000C9465000C9465008C
:100060000C9465000C9465000C9465000C9465007C
:100070000C9465000C9465000C9465000C9465006C
:100080000C9465000C9465000C94650011241FBE4F
:10009000CFEFD0E4DEBFCDBF11E0A0E0B1E0E8EBF0
:1000A000F7E000E00BBF02C007900D92AA31B10744
:1000B000D9F721E0AAE1B1E001C01D92A933B2074E
:1000C000E1F70E940D030C94DA030C940000CF9327
:1000D000DF9300D01F92CDB7DEB789837B836A831D
:1000E00089818A3031F48A819B81BC018DE00E9434
:1000F000670080EC90E0FC018081882F90E08072A6
:100100009927892BB1F386EC90E02981FC012083AB
:1001100080E090E00F900F900F90DF91CF910895C5
:10012000CF93DF9300D000D0CDB7DEB769837A8359
:100130008B839C8389819A81AB81BC8180930E01E2
:1001400090930F01A0931001B093110180910E01C3
:1001500090910F01A0911001B091110180931B01AA
:1001600090931C01A0931D01B0931E0100000F90FD
:100170000F900F900F90DF91CF910895CF93DF9361
:10018000CDB7DEB781E890E02BE0FC01208388E862
:1001900090E02DE730E0FC01318320838FE690E092
:1001A00022E0FC01208384E890E0FC0111821082AF
:1001B00080910E0190910F01A0911001B091110159
:1001C00080931B0190931C01A0931D01B0931E010D
:1001D0008FE590E02FE530E0F90120812068FC01F7
:1001E00020830000DF91CF910895CF93DF93CDB7A7
:1001F000DEB781E890E0FC0110820000DF91CF9132
:1002000008950F931F93CF93DF931F92CDB7DEB75F
:100210001982A6C08981282F30E0C901880F991F53
:10022000820F931F880F991F880F991F895D9E4F1A
:10023000FC0120813181428153818981682F70E0E6
:10024000CB01880F991F860F971F880F991F880F62
:10025000991F8D5D9E4FFC0180819181A281B381A8
:10026000281739074A075B0708F449C08981082F16
:1002700010E08981282F30E0C901880F991F820F73
:10028000931F880F991F880F991F855D9E4FFC0152
:10029000408151818981282F30E0C901880F991F41
:1002A000820F931F880F991F880F991F8F5D9E4F94
:1002B000FC0180819181FA0109959C01C801880F98
:1002C000991F800F911F880F991F880F991F8F5DAD
:1002D0009E4FFC01318320838981282F30E0C901A2
:1002E000880F991F820F931F880F991F880F991FDE
:1002F000895D9E4FFC0110821182128213828981D6
:10030000682F70E08981282F30E0C901880F991F7C
:10031000820F931F880F991F880F991F895D9E4F29
:10032000FC0180819181A281B38122E330E040E031
:1003300050E0280F391F4A1F5B1FCB01880F991F00
:10034000860F971F880F991F880F991F895D9E4FF1
:10035000FC01208331834283538389818F5F8983AA
:100360008981282F30E082E090E02817390708F4CF
:1003700051CF00000F90DF91CF911F910F91089501
:100380001F920F9200905F000F92112400905B006B
:100390000F922F933F934F935F936F937F938F931E
:1003A0009F93AF93BF93EF93FF93CF93DF93CDB71B
:1003B000DEB780911B0190911C01A0911D01B091AD
:1003C0001E010197A109B10980931B0190931C01A3
:1003D000A0931D01B0931E0180911B0190911C01FF
:1003E000A0911D01B0911E01892B8A2B8B2B91F4BA
:1003F0000E94010180910E0190910F01A0911001C6
:10040000B091110180931B0190931C01A0931D01D9
:10041000B0931E010000DF91CF91FF91EF91BF914A
:10042000AF919F918F917F916F915F914F913F918C
:100430002F910F9000925B000F9000925F000F9041
:100440001F901895CF93DF93CDB7DEB78AE790E082
:100450002AE730E0F9012081206EFC0120830000B2
:10046000DF91CF910895CF93DF9300D0CDB7DEB762
:100470009A83898389819A81892B19F01A8219823A
:1004800001C0000089819A81892B09F00AC088E7A0
:1004900090E0FC01808191819093200180931F0165
:1004A000000089819A810F900F90DF91CF9108957C
:1004B000CF93DF9300D0CDB7DEB79A83898389814C
:1004C0009A8181309105C1F0823091051CF4892B0D
:1004D00041F060C082309105D1F1039709F448C022
:1004E00059C081E090E09A83898380E8809312016B
:1004F0008EEF809313014EC080911F0190912001D7
:10050000843F914060F080911F01909120018935D6
:10051000924028F481E090E09A8389833AC08091E8
:100520001F0190912001843F914028F482E090E0E7
:100530009A8389832EC080911F0190912001893573
:10054000924038F183E090E09A83898322C08091C1
:100550001F0190912001843F914028F482E090E0B7
:100560009A83898317C081E090E09A83898312C0BF
:1005700080911F01909120018935924028F083E0FD
:1005800090E09A83898306C081E090E09A83898312
:1005900001C0000089819A818130910541F182304A
:1005A00091051CF4892B29F125C08230910589F031
:1005B000039709F01FC080911201813021F480E877
:1005C0008093120117C080911201869580931201C9
:1005D00011C080911201803821F481E080931201D2
:1005E00009C080911201880F8093120103C000009E
:1005F00001C0000088E290E020911201FC012083FC
:100600008BE290E020911301FC01208389819A8183
:100610000F900F90DF91CF910895CF93DF931F92AA
:10062000CDB7DEB781E290E0FC01108282E290E07B
:100630002FEFFC01208387E290E02FEFFC01208365
:1006400085E290E0FC0110828AE290E02FEFFC014D
:10065000208388E290E0FC0110820E94220219822D
:100660008981282F30E0C901880F991F820F931FBD
:10067000880F991F880F991F8F5D9E4FFC01118273
:1006800010828981282F30E0C901880F991F820FBD
:10069000931F880F991F880F991F9C012D5D3E4F56
:1006A00084E690E0A0E0B0E0F90180839183A2832A
:1006B000B3838981282F30E0C901880F991F820FE9
:1006C000931F880F991F880F991F895D9E4FFC010A
:1006D00010821182128213828981282F30E0C90191
:1006E000880F991F820F931F880F991F880F991FDA
:1006F000855D9E4F23E332E0FC01318320838981B5
:100700008F5F89838981282F30E0C901880F991F65
:10071000820F931F880F991F880F991F8F5D9E4F1F
:10072000FC01118210828981282F30E0C901880FD5
:10073000991F820F931F880F991F880F991F9C0183
:100740002D5D3E4F84E690E0A0E0B0E0F9018083AB
:100750009183A283B3838981282F30E0C901880F58
:10076000991F820F931F880F991F880F991F895D0A
:100770009E4FFC0110821182128213828981282FE0
:1007800030E0C901880F991F820F931F880F991FAE
:10079000880F991F855D9E4F28E532E0FC0131836B
:1007A000208364E670E080E090E00E9490000E9468
:0807B000BE00FFCFF894FFCF5B
:1007B80000000002000000006700000000000100C7
:0A07C800000080FE02003200000075
:00000001FF
